{
  "_format": "hh-sol-artifact-1",
  "contractName": "DEFIMONEquityToken",
  "sourceName": "contracts/DEFIMONEquityToken.sol",
  "abi": [
    {
      "inputs": [
        {
          "internalType": "address",
          "name": "_owner",
          "type": "address"
        }
      ],
      "stateMutability": "nonpayable",
      "type": "constructor"
    },
    {
      "inputs": [
        {
          "internalType": "address",
          "name": "spender",
          "type": "address"
        },
        {
          "internalType": "uint256",
          "name": "allowance",
          "type": "uint256"
        },
        {
          "internalType": "uint256",
          "name": "needed",
          "type": "uint256"
        }
      ],
      "name": "ERC20InsufficientAllowance",
      "type": "error"
    },
    {
      "inputs": [
        {
          "internalType": "address",
          "name": "sender",
          "type": "address"
        },
        {
          "internalType": "uint256",
          "name": "balance",
          "type": "uint256"
        },
        {
          "internalType": "uint256",
          "name": "needed",
          "type": "uint256"
        }
      ],
      "name": "ERC20InsufficientBalance",
      "type": "error"
    },
    {
      "inputs": [
        {
          "internalType": "address",
          "name": "approver",
          "type": "address"
        }
      ],
      "name": "ERC20InvalidApprover",
      "type": "error"
    },
    {
      "inputs": [
        {
          "internalType": "address",
          "name": "receiver",
          "type": "address"
        }
      ],
      "name": "ERC20InvalidReceiver",
      "type": "error"
    },
    {
      "inputs": [
        {
          "internalType": "address",
          "name": "sender",
          "type": "address"
        }
      ],
      "name": "ERC20InvalidSender",
      "type": "error"
    },
    {
      "inputs": [
        {
          "internalType": "address",
          "name": "spender",
          "type": "address"
        }
      ],
      "name": "ERC20InvalidSpender",
      "type": "error"
    },
    {
      "inputs": [
        {
          "internalType": "address",
          "name": "owner",
          "type": "address"
        }
      ],
      "name": "OwnableInvalidOwner",
      "type": "error"
    },
    {
      "inputs": [
        {
          "internalType": "address",
          "name": "account",
          "type": "address"
        }
      ],
      "name": "OwnableUnauthorizedAccount",
      "type": "error"
    },
    {
      "inputs": [],
      "name": "ReentrancyGuardReentrantCall",
      "type": "error"
    },
    {
      "anonymous": false,
      "inputs": [
        {
          "indexed": true,
          "internalType": "address",
          "name": "owner",
          "type": "address"
        },
        {
          "indexed": true,
          "internalType": "address",
          "name": "spender",
          "type": "address"
        },
        {
          "indexed": false,
          "internalType": "uint256",
          "name": "value",
          "type": "uint256"
        }
      ],
      "name": "Approval",
      "type": "event"
    },
    {
      "anonymous": false,
      "inputs": [
        {
          "indexed": true,
          "internalType": "address",
          "name": "previousOwner",
          "type": "address"
        },
        {
          "indexed": true,
          "internalType": "address",
          "name": "newOwner",
          "type": "address"
        }
      ],
      "name": "OwnershipTransferred",
      "type": "event"
    },
    {
      "anonymous": false,
      "inputs": [
        {
          "indexed": true,
          "internalType": "address",
          "name": "wallet",
          "type": "address"
        },
        {
          "indexed": false,
          "internalType": "string",
          "name": "firstName",
          "type": "string"
        },
        {
          "indexed": false,
          "internalType": "string",
          "name": "lastName",
          "type": "string"
        },
        {
          "indexed": false,
          "internalType": "uint256",
          "name": "allocation",
          "type": "uint256"
        }
      ],
      "name": "ParticipantAdded",
      "type": "event"
    },
    {
      "anonymous": false,
      "inputs": [
        {
          "indexed": true,
          "internalType": "address",
          "name": "participant",
          "type": "address"
        },
        {
          "indexed": false,
          "internalType": "bool",
          "name": "isActive",
          "type": "bool"
        },
        {
          "indexed": false,
          "internalType": "bool",
          "name": "isLeaver",
          "type": "bool"
        }
      ],
      "name": "ParticipantStatusChanged",
      "type": "event"
    },
    {
      "anonymous": false,
      "inputs": [
        {
          "indexed": true,
          "internalType": "address",
          "name": "participant",
          "type": "address"
        },
        {
          "indexed": false,
          "internalType": "uint256",
          "name": "amount",
          "type": "uint256"
        }
      ],
      "name": "TokensClaimed",
      "type": "event"
    },
    {
      "anonymous": false,
      "inputs": [
        {
          "indexed": true,
          "internalType": "address",
          "name": "from",
          "type": "address"
        },
        {
          "indexed": true,
          "internalType": "address",
          "name": "to",
          "type": "address"
        },
        {
          "indexed": false,
          "internalType": "uint256",
          "name": "value",
          "type": "uint256"
        }
      ],
      "name": "Transfer",
      "type": "event"
    },
    {
      "anonymous": false,
      "inputs": [
        {
          "indexed": false,
          "internalType": "uint256",
          "name": "startTime",
          "type": "uint256"
        }
      ],
      "name": "VestingStarted",
      "type": "event"
    },
    {
      "inputs": [],
      "name": "CLIFF_PERCENTAGE",
      "outputs": [
        {
          "internalType": "uint256",
          "name": "",
          "type": "uint256"
        }
      ],
      "stateMutability": "view",
      "type": "function"
    },
    {
      "inputs": [],
      "name": "CLIFF_PERIOD",
      "outputs": [
        {
          "internalType": "uint256",
          "name": "",
          "type": "uint256"
        }
      ],
      "stateMutability": "view",
      "type": "function"
    },
    {
      "inputs": [],
      "name": "TOTAL_SUPPLY",
      "outputs": [
        {
          "internalType": "uint256",
          "name": "",
          "type": "uint256"
        }
      ],
      "stateMutability": "view",
      "type": "function"
    },
    {
      "inputs": [],
      "name": "VESTING_PERIOD",
      "outputs": [
        {
          "internalType": "uint256",
          "name": "",
          "type": "uint256"
        }
      ],
      "stateMutability": "view",
      "type": "function"
    },
    {
      "inputs": [
        {
          "internalType": "string",
          "name": "_firstName",
          "type": "string"
        },
        {
          "internalType": "string",
          "name": "_lastName",
          "type": "string"
        },
        {
          "internalType": "address",
          "name": "_wallet",
          "type": "address"
        },
        {
          "internalType": "uint256",
          "name": "_allocationPercentage",
          "type": "uint256"
        }
      ],
      "name": "addParticipant",
      "outputs": [],
      "stateMutability": "nonpayable",
      "type": "function"
    },
    {
      "inputs": [
        {
          "internalType": "address",
          "name": "owner",
          "type": "address"
        },
        {
          "internalType": "address",
          "name": "spender",
          "type": "address"
        }
      ],
      "name": "allowance",
      "outputs": [
        {
          "internalType": "uint256",
          "name": "",
          "type": "uint256"
        }
      ],
      "stateMutability": "view",
      "type": "function"
    },
    {
      "inputs": [
        {
          "internalType": "address",
          "name": "spender",
          "type": "address"
        },
        {
          "internalType": "uint256",
          "name": "value",
          "type": "uint256"
        }
      ],
      "name": "approve",
      "outputs": [
        {
          "internalType": "bool",
          "name": "",
          "type": "bool"
        }
      ],
      "stateMutability": "nonpayable",
      "type": "function"
    },
    {
      "inputs": [
        {
          "internalType": "address",
          "name": "account",
          "type": "address"
        }
      ],
      "name": "balanceOf",
      "outputs": [
        {
          "internalType": "uint256",
          "name": "",
          "type": "uint256"
        }
      ],
      "stateMutability": "view",
      "type": "function"
    },
    {
      "inputs": [],
      "name": "claimVestedTokens",
      "outputs": [],
      "stateMutability": "nonpayable",
      "type": "function"
    },
    {
      "inputs": [],
      "name": "decimals",
      "outputs": [
        {
          "internalType": "uint8",
          "name": "",
          "type": "uint8"
        }
      ],
      "stateMutability": "view",
      "type": "function"
    },
    {
      "inputs": [],
      "name": "getAllParticipantAddresses",
      "outputs": [
        {
          "internalType": "address[]",
          "name": "",
          "type": "address[]"
        }
      ],
      "stateMutability": "view",
      "type": "function"
    },
    {
      "inputs": [],
      "name": "getParticipantCount",
      "outputs": [
        {
          "internalType": "uint256",
          "name": "",
          "type": "uint256"
        }
      ],
      "stateMutability": "view",
      "type": "function"
    },
    {
      "inputs": [
        {
          "internalType": "address",
          "name": "_participant",
          "type": "address"
        }
      ],
      "name": "getParticipantInfo",
      "outputs": [
        {
          "internalType": "string",
          "name": "firstName",
          "type": "string"
        },
        {
          "internalType": "string",
          "name": "lastName",
          "type": "string"
        },
        {
          "internalType": "address",
          "name": "wallet",
          "type": "address"
        },
        {
          "internalType": "uint256",
          "name": "totalAllocation",
          "type": "uint256"
        },
        {
          "internalType": "uint256",
          "name": "claimedAmount",
          "type": "uint256"
        },
        {
          "internalType": "uint256",
          "name": "vestingStartTime",
          "type": "uint256"
        },
        {
          "internalType": "bool",
          "name": "isActive",
          "type": "bool"
        },
        {
          "internalType": "bool",
          "name": "isLeaver",
          "type": "bool"
        }
      ],
      "stateMutability": "view",
      "type": "function"
    },
    {
      "inputs": [],
      "name": "getProjectValuation",
      "outputs": [
        {
          "internalType": "uint256",
          "name": "",
          "type": "uint256"
        }
      ],
      "stateMutability": "view",
      "type": "function"
    },
    {
      "inputs": [],
      "name": "getRemainingTokens",
      "outputs": [
        {
          "internalType": "uint256",
          "name": "",
          "type": "uint256"
        }
      ],
      "stateMutability": "view",
      "type": "function"
    },
    {
      "inputs": [],
      "name": "getTokenPrice",
      "outputs": [
        {
          "internalType": "uint256",
          "name": "",
          "type": "uint256"
        }
      ],
      "stateMutability": "view",
      "type": "function"
    },
    {
      "inputs": [
        {
          "internalType": "address",
          "name": "_participant",
          "type": "address"
        }
      ],
      "name": "getVestedBalance",
      "outputs": [
        {
          "internalType": "uint256",
          "name": "",
          "type": "uint256"
        }
      ],
      "stateMutability": "view",
      "type": "function"
    },
    {
      "inputs": [],
      "name": "name",
      "outputs": [
        {
          "internalType": "string",
          "name": "",
          "type": "string"
        }
      ],
      "stateMutability": "view",
      "type": "function"
    },
    {
      "inputs": [],
      "name": "owner",
      "outputs": [
        {
          "internalType": "address",
          "name": "",
          "type": "address"
        }
      ],
      "stateMutability": "view",
      "type": "function"
    },
    {
      "inputs": [
        {
          "internalType": "uint256",
          "name": "",
          "type": "uint256"
        }
      ],
      "name": "participantAddresses",
      "outputs": [
        {
          "internalType": "address",
          "name": "",
          "type": "address"
        }
      ],
      "stateMutability": "view",
      "type": "function"
    },
    {
      "inputs": [
        {
          "internalType": "address",
          "name": "",
          "type": "address"
        }
      ],
      "name": "participants",
      "outputs": [
        {
          "internalType": "string",
          "name": "firstName",
          "type": "string"
        },
        {
          "internalType": "string",
          "name": "lastName",
          "type": "string"
        },
        {
          "internalType": "address",
          "name": "wallet",
          "type": "address"
        },
        {
          "internalType": "uint256",
          "name": "totalAllocation",
          "type": "uint256"
        },
        {
          "internalType": "uint256",
          "name": "claimedAmount",
          "type": "uint256"
        },
        {
          "internalType": "uint256",
          "name": "vestingStartTime",
          "type": "uint256"
        },
        {
          "internalType": "uint256",
          "name": "cliffDuration",
          "type": "uint256"
        },
        {
          "internalType": "uint256",
          "name": "vestingDuration",
          "type": "uint256"
        },
        {
          "internalType": "bool",
          "name": "isActive",
          "type": "bool"
        },
        {
          "internalType": "bool",
          "name": "isLeaver",
          "type": "bool"
        }
      ],
      "stateMutability": "view",
      "type": "function"
    },
    {
      "inputs": [],
      "name": "projectValuation",
      "outputs": [
        {
          "internalType": "uint256",
          "name": "",
          "type": "uint256"
        }
      ],
      "stateMutability": "view",
      "type": "function"
    },
    {
      "inputs": [],
      "name": "renounceOwnership",
      "outputs": [],
      "stateMutability": "nonpayable",
      "type": "function"
    },
    {
      "inputs": [
        {
          "internalType": "address",
          "name": "_participant",
          "type": "address"
        },
        {
          "internalType": "bool",
          "name": "_isActive",
          "type": "bool"
        },
        {
          "internalType": "bool",
          "name": "_isLeaver",
          "type": "bool"
        }
      ],
      "name": "setParticipantStatus",
      "outputs": [],
      "stateMutability": "nonpayable",
      "type": "function"
    },
    {
      "inputs": [],
      "name": "startVesting",
      "outputs": [],
      "stateMutability": "nonpayable",
      "type": "function"
    },
    {
      "inputs": [],
      "name": "symbol",
      "outputs": [
        {
          "internalType": "string",
          "name": "",
          "type": "string"
        }
      ],
      "stateMutability": "view",
      "type": "function"
    },
    {
      "inputs": [],
      "name": "totalAllocatedTokens",
      "outputs": [
        {
          "internalType": "uint256",
          "name": "",
          "type": "uint256"
        }
      ],
      "stateMutability": "view",
      "type": "function"
    },
    {
      "inputs": [],
      "name": "totalSupply",
      "outputs": [
        {
          "internalType": "uint256",
          "name": "",
          "type": "uint256"
        }
      ],
      "stateMutability": "view",
      "type": "function"
    },
    {
      "inputs": [
        {
          "internalType": "address",
          "name": "to",
          "type": "address"
        },
        {
          "internalType": "uint256",
          "name": "amount",
          "type": "uint256"
        }
      ],
      "name": "transfer",
      "outputs": [
        {
          "internalType": "bool",
          "name": "",
          "type": "bool"
        }
      ],
      "stateMutability": "nonpayable",
      "type": "function"
    },
    {
      "inputs": [
        {
          "internalType": "address",
          "name": "from",
          "type": "address"
        },
        {
          "internalType": "address",
          "name": "to",
          "type": "address"
        },
        {
          "internalType": "uint256",
          "name": "amount",
          "type": "uint256"
        }
      ],
      "name": "transferFrom",
      "outputs": [
        {
          "internalType": "bool",
          "name": "",
          "type": "bool"
        }
      ],
      "stateMutability": "nonpayable",
      "type": "function"
    },
    {
      "inputs": [
        {
          "internalType": "address",
          "name": "newOwner",
          "type": "address"
        }
      ],
      "name": "transferOwnership",
      "outputs": [],
      "stateMutability": "nonpayable",
      "type": "function"
    },
    {
      "inputs": [
        {
          "internalType": "uint256",
          "name": "_newValuation",
          "type": "uint256"
        }
      ],
      "name": "updateProjectValuation",
      "outputs": [],
      "stateMutability": "nonpayable",
      "type": "function"
    }
  ],
  "bytecode": "0x608060405262989680600a553480156200001857600080fd5b5060405162002153380380620021538339810160408190526200003b91620002d3565b806040518060400160405280601481526020017f444546494d4f4e2045717569747920546f6b656e000000000000000000000000815250604051806040016040528060038152602001620888cb60eb1b81525081600390816200009f9190620003aa565b506004620000ae8282620003aa565b5050506001600160a01b038116620000e157604051631e4fbdf760e01b8152600060048201526024015b60405180910390fd5b620000ec8162000110565b50600160065562000109306a084595161401484a00000062000162565b506200049e565b600580546001600160a01b038381166001600160a01b0319831681179093556040519116919082907f8be0079c531659141344cd1fd0a4f28419497f9722a3daafe3b4186f6b6457e090600090a35050565b6001600160a01b0382166200018e5760405163ec442f0560e01b815260006004820152602401620000d8565b6200019c60008383620001a0565b5050565b6001600160a01b038316620001cf578060026000828254620001c3919062000476565b90915550620002439050565b6001600160a01b03831660009081526020819052604090205481811015620002245760405163391434e360e21b81526001600160a01b03851660048201526024810182905260448101839052606401620000d8565b6001600160a01b03841660009081526020819052604090209082900390555b6001600160a01b038216620002615760028054829003905562000280565b6001600160a01b03821660009081526020819052604090208054820190555b816001600160a01b0316836001600160a01b03167fddf252ad1be2c89b69c2b068fc378daa952ba7f163c4a11628f55a4df523b3ef83604051620002c691815260200190565b60405180910390a3505050565b600060208284031215620002e657600080fd5b81516001600160a01b0381168114620002fe57600080fd5b9392505050565b634e487b7160e01b600052604160045260246000fd5b600181811c908216806200033057607f821691505b6020821081036200035157634e487b7160e01b600052602260045260246000fd5b50919050565b601f821115620003a557600081815260208120601f850160051c81016020861015620003805750805b601f850160051c820191505b81811015620003a1578281556001016200038c565b5050505b505050565b81516001600160401b03811115620003c657620003c662000305565b620003de81620003d784546200031b565b8462000357565b602080601f831160018114620004165760008415620003fd5750858301515b600019600386901b1c1916600185901b178555620003a1565b600085815260208120601f198616915b82811015620004475788860151825594840194600190910190840162000426565b5085821015620004665787850151600019600388901b60f8161c191681555b5050505050600190811b01905550565b808201808211156200049857634e487b7160e01b600052601160045260246000fd5b92915050565b611ca580620004ae6000396000f3fe608060405234801561001057600080fd5b50600436106101f05760003560e01c8063715018a61161010f578063ad605729116100a2578063deb36e3211610071578063deb36e3214610428578063e3b591ea14610430578063e74f3fbb14610443578063f2fde38b1461044b57600080fd5b8063ad605729146103d7578063af35ae27146103df578063bbe8b382146103e7578063dd62ed3e146103ef57600080fd5b80638da5cb5b116100de5780638da5cb5b1461039e578063902d55a5146103af57806395d89b41146103c1578063a9059cbb146103c957600080fd5b8063715018a61461035157806371bdce55146103595780637f58b9d3146103805780638cad856f1461039357600080fd5b8063313ce5671161018757806354ba2daf1161015657806354ba2daf146102d557806354ffbddb146102e8578063688114311461031357806370a082311461032857600080fd5b8063313ce567146102a057806336ab5d23146102af578063454f7edd146102c45780634b94f50e146102cd57600080fd5b806309e69ede116101c357806309e69ede146102535780630c195d991461027c57806318160ddd1461028557806323b872dd1461028d57600080fd5b80630197d972146101f55780630369d64e1461021357806306fdde031461021b578063095ea7b314610230575b600080fd5b610200630784ce0081565b6040519081526020015b60405180910390f35b610200601981565b61022361045e565b60405161020a91906116ac565b61024361023e3660046116e2565b6104f0565b604051901515815260200161020a565b61026661026136600461170c565b61050a565b60405161020a9a99989796959493929190611727565b61020060095481565b600254610200565b61024361029b36600461179e565b610678565b6040516012815260200161020a565b6102c26102bd36600461187d565b6106e6565b005b610200600a5481565b610200610a4c565b6102c26102e3366004611909565b610a8f565b6102fb6102f636600461194c565b610bda565b6040516001600160a01b03909116815260200161020a565b61031b610c04565b60405161020a9190611965565b61020061033636600461170c565b6001600160a01b031660009081526020819052604090205490565b6102c2610c65565b61036c61036736600461170c565b610c79565b60405161020a9897969594939291906119b2565b61020061038e36600461170c565b610e0a565b6102006301e1338081565b6005546001600160a01b03166102fb565b6102006a084595161401484a00000081565b610223610f72565b61024361029b3660046116e2565b600854610200565b610200610f81565b600a54610200565b6102006103fd366004611a1a565b6001600160a01b03918216600090815260016020908152604080832093909416825291909152205490565b6102c2610f9c565b6102c261043e36600461194c565b6110aa565b6102c2611107565b6102c261045936600461170c565b61130e565b60606003805461046d90611a4d565b80601f016020809104026020016040519081016040528092919081815260200182805461049990611a4d565b80156104e65780601f106104bb576101008083540402835291602001916104e6565b820191906000526020600020905b8154815290600101906020018083116104c957829003601f168201915b5050505050905090565b6000336104fe81858561134c565b60019150505b92915050565b60076020526000908152604090208054819061052590611a4d565b80601f016020809104026020016040519081016040528092919081815260200182805461055190611a4d565b801561059e5780601f106105735761010080835404028352916020019161059e565b820191906000526020600020905b81548152906001019060200180831161058157829003601f168201915b5050505050908060010180546105b390611a4d565b80601f01602080910402602001604051908101604052809291908181526020018280546105df90611a4d565b801561062c5780601f106106015761010080835404028352916020019161062c565b820191906000526020600020905b81548152906001019060200180831161060f57829003601f168201915b5050505060028301546003840154600485015460058601546006870154600788015460089098015496976001600160a01b03909516969395509193909260ff808216916101009004168a565b60405162461bcd60e51b815260206004820152603560248201527f446972656374207472616e7366657273206e6f7420616c6c6f7765642e2055736044820152746520636c61696d566573746564546f6b656e73282960581b60648201526000906084015b60405180910390fd5b6106ee61135e565b6001600160a01b03821661073d5760405162461bcd60e51b8152602060048201526016602482015275496e76616c69642077616c6c6574206164647265737360501b60448201526064016106dd565b60008111801561074e575060648111155b61079a5760405162461bcd60e51b815260206004820152601d60248201527f496e76616c696420616c6c6f636174696f6e2070657263656e7461676500000060448201526064016106dd565b6001600160a01b0382811660009081526007602052604090206002015416156108055760405162461bcd60e51b815260206004820152601a60248201527f5061727469636970616e7420616c72656164792065786973747300000000000060448201526064016106dd565b6000606461081e836a084595161401484a000000611a9d565b6108289190611ab4565b90506a084595161401484a000000816009546108449190611ad6565b11156108925760405162461bcd60e51b815260206004820152601f60248201527f546f74616c20616c6c6f636174696f6e206578636565647320737570706c790060448201526064016106dd565b604080516101408101825286815260208082018790526001600160a01b0386168284018190526060830185905260006080840181905260a084018190526301e1338060c0850152630784ce0060e0850152600161010085015261012084018190529081526007909152919091208151819061090d9082611b37565b50602082015160018201906109229082611b37565b5060408201516002820180546001600160a01b03199081166001600160a01b0393841617909155606084015160038401556080840151600484015560a0840151600584015560c0840151600684015560e0840151600784015561010080850151600894850180546101209097015161ffff1990971691151561ff001916919091179515159091029490941790935581546001810183556000929092527ff3f7a9fe364faab93b216da50a3214154f22a0a2b415b23a84c8169e8b636ee390910180549092169085161790556009546109fb908290611ad6565b6009556040516001600160a01b038416907ff022b46c0cbb6c0b8c6b656714a8b3ae81d620f3cd91677f11e3d5f12a9ac7b290610a3d90889088908690611bf7565b60405180910390a25050505050565b6000610a6b670de0b6b3a76400006a084595161401484a000000611ab4565b600a54610a8090670de0b6b3a7640000611a9d565b610a8a9190611ab4565b905090565b610a9761135e565b6001600160a01b03808416600090815260076020526040902060020154849116610af75760405162461bcd60e51b8152602060048201526011602482015270139bdd0818481c185c9d1a58da5c185b9d607a1b60448201526064016106dd565b6001600160a01b03811660009081526007602052604090206008015460ff16610b5e5760405162461bcd60e51b81526020600482015260196024820152785061727469636970616e74206973206e6f742061637469766560381b60448201526064016106dd565b6001600160a01b0384166000818152600760209081526040918290206008018054861515610100810261ff00198a151590811661ffff1990941693909317179092558351908152918201527f1141d7a121d08ec2ee81022d7b170a7da04182cfbc14498eefcbc65dcb8cf8fb910160405180910390a250505050565b60088181548110610bea57600080fd5b6000918252602090912001546001600160a01b0316905081565b606060088054806020026020016040519081016040528092919081815260200182805480156104e657602002820191906000526020600020905b81546001600160a01b03168152600190910190602001808311610c3e575050505050905090565b610c6d61135e565b610c77600061138b565b565b6001600160a01b0380821660009081526007602052604081206002810154600382015460048301546005840154600885015485546060988998978897889788978897889794968796600188019695169460ff8082169261010090920416908890610ce290611a4d565b80601f0160208091040260200160405190810160405280929190818152602001828054610d0e90611a4d565b8015610d5b5780601f10610d3057610100808354040283529160200191610d5b565b820191906000526020600020905b815481529060010190602001808311610d3e57829003601f168201915b50505050509750868054610d6e90611a4d565b80601f0160208091040260200160405190810160405280929190818152602001828054610d9a90611a4d565b8015610de75780601f10610dbc57610100808354040283529160200191610de7565b820191906000526020600020905b815481529060010190602001808311610dca57829003601f168201915b505050505096509850985098509850985098509850985050919395975091939597565b6001600160a01b038082166000908152600760205260408120600281015491929091161580610e3e5750600881015460ff16155b80610e5257506008810154610100900460ff165b15610e605750600092915050565b8060050154600003610e755750600092915050565b6000816005015442610e879190611c2d565b90508160060154811015610e9f575060009392505050565b600082600701548210610eb757506003820154610f43565b6000836006015483610ec99190611c2d565b9050600084600601548560070154610ee19190611c2d565b90506000606460198760030154610ef89190611a9d565b610f029190611ab4565b90506000818760030154610f169190611c2d565b9050600083610f258684611a9d565b610f2f9190611ab4565b9050610f3b8184611ad6565b955050505050505b8260040154811115610f67576004830154610f5e9082611c2d565b95945050505050565b506000949350505050565b60606004805461046d90611a4d565b60006009546a084595161401484a000000610a8a9190611c2d565b610fa461135e565b600854610feb5760405162461bcd60e51b8152602060048201526015602482015274139bc81c185c9d1a58da5c185b9d1cc81859191959605a1b60448201526064016106dd565b4260005b6008548110156110735760006008828154811061100e5761100e611c40565b60009182526020808320909101546001600160a01b0316808352600790915260409091206008015490915060ff1615611060576001600160a01b03811660009081526007602052604090206005018390555b508061106b81611c56565b915050610fef565b506040518181527f3930f04857ba592ba0a6a96942f8350c2415c0a4aa849021aeefee98bb55b1229060200160405180910390a150565b6110b261135e565b600081116111025760405162461bcd60e51b815260206004820152601a60248201527f56616c756174696f6e206d75737420626520706f73697469766500000000000060448201526064016106dd565b600a55565b61110f6113dd565b336000908152600760205260409020600201546001600160a01b031661116b5760405162461bcd60e51b8152602060048201526011602482015270139bdd0818481c185c9d1a58da5c185b9d607a1b60448201526064016106dd565b3360009081526007602052604090206008015460ff166111c95760405162461bcd60e51b81526020600482015260196024820152785061727469636970616e74206973206e6f742061637469766560381b60448201526064016106dd565b33600090815260076020526040902060080154610100900460ff16156112315760405162461bcd60e51b815260206004820181905260248201527f5061727469636970616e7420686173206c656674207468652070726f6a65637460448201526064016106dd565b600061123c33610e0a565b90506000811161128e5760405162461bcd60e51b815260206004820152601d60248201527f4e6f20746f6b656e7320617661696c61626c6520666f7220636c61696d00000060448201526064016106dd565b336000908152600760205260409020600401546112ac908290611ad6565b336000818152600760205260409020600401919091556112ce90309083611407565b60405181815233907f896e034966eaaf1adc54acc0f257056febbd300c9e47182cf761982cf1f5e4309060200160405180910390a250610c776001600655565b61131661135e565b6001600160a01b03811661134057604051631e4fbdf760e01b8152600060048201526024016106dd565b6113498161138b565b50565b6113598383836001611466565b505050565b6005546001600160a01b03163314610c775760405163118cdaa760e01b81523360048201526024016106dd565b600580546001600160a01b038381166001600160a01b0319831681179093556040519116919082907f8be0079c531659141344cd1fd0a4f28419497f9722a3daafe3b4186f6b6457e090600090a35050565b60026006540361140057604051633ee5aeb560e01b815260040160405180910390fd5b6002600655565b6001600160a01b03831661143157604051634b637e8f60e11b8152600060048201526024016106dd565b6001600160a01b03821661145b5760405163ec442f0560e01b8152600060048201526024016106dd565b61135983838361153c565b6001600160a01b0384166114905760405163e602df0560e01b8152600060048201526024016106dd565b6001600160a01b0383166114ba57604051634a1406b160e11b8152600060048201526024016106dd565b6001600160a01b038085166000908152600160209081526040808320938716835292905220829055801561153657826001600160a01b0316846001600160a01b03167f8c5be1e5ebec7d5bd14f71427d1e84f3dd0314c0f7b2291e5b200ac8c7c3b9258460405161152d91815260200190565b60405180910390a35b50505050565b6001600160a01b03831661156757806002600082825461155c9190611ad6565b909155506115d99050565b6001600160a01b038316600090815260208190526040902054818110156115ba5760405163391434e360e21b81526001600160a01b038516600482015260248101829052604481018390526064016106dd565b6001600160a01b03841660009081526020819052604090209082900390555b6001600160a01b0382166115f557600280548290039055611614565b6001600160a01b03821660009081526020819052604090208054820190555b816001600160a01b0316836001600160a01b03167fddf252ad1be2c89b69c2b068fc378daa952ba7f163c4a11628f55a4df523b3ef8360405161165991815260200190565b60405180910390a3505050565b6000815180845260005b8181101561168c57602081850181015186830182015201611670565b506000602082860101526020601f19601f83011685010191505092915050565b6020815260006116bf6020830184611666565b9392505050565b80356001600160a01b03811681146116dd57600080fd5b919050565b600080604083850312156116f557600080fd5b6116fe836116c6565b946020939093013593505050565b60006020828403121561171e57600080fd5b6116bf826116c6565b600061014080835261173b8184018e611666565b9050828103602084015261174f818d611666565b6001600160a01b039b909b16604084015250506060810197909752608087019590955260a086019390935260c085019190915260e0840152151561010083015215156101209091015292915050565b6000806000606084860312156117b357600080fd5b6117bc846116c6565b92506117ca602085016116c6565b9150604084013590509250925092565b634e487b7160e01b600052604160045260246000fd5b600082601f83011261180157600080fd5b813567ffffffffffffffff8082111561181c5761181c6117da565b604051601f8301601f19908116603f01168101908282118183101715611844576118446117da565b8160405283815286602085880101111561185d57600080fd5b836020870160208301376000602085830101528094505050505092915050565b6000806000806080858703121561189357600080fd5b843567ffffffffffffffff808211156118ab57600080fd5b6118b7888389016117f0565b955060208701359150808211156118cd57600080fd5b506118da878288016117f0565b9350506118e9604086016116c6565b9396929550929360600135925050565b803580151581146116dd57600080fd5b60008060006060848603121561191e57600080fd5b611927846116c6565b9250611935602085016118f9565b9150611943604085016118f9565b90509250925092565b60006020828403121561195e57600080fd5b5035919050565b6020808252825182820181905260009190848201906040850190845b818110156119a65783516001600160a01b031683529284019291840191600101611981565b50909695505050505050565b60006101008083526119c68184018c611666565b905082810360208401526119da818b611666565b6001600160a01b0399909916604084015250506060810195909552608085019390935260a0840191909152151560c0830152151560e09091015292915050565b60008060408385031215611a2d57600080fd5b611a36836116c6565b9150611a44602084016116c6565b90509250929050565b600181811c90821680611a6157607f821691505b602082108103611a8157634e487b7160e01b600052602260045260246000fd5b50919050565b634e487b7160e01b600052601160045260246000fd5b808202811582820484141761050457610504611a87565b600082611ad157634e487b7160e01b600052601260045260246000fd5b500490565b8082018082111561050457610504611a87565b601f82111561135957600081815260208120601f850160051c81016020861015611b105750805b601f850160051c820191505b81811015611b2f57828155600101611b1c565b505050505050565b815167ffffffffffffffff811115611b5157611b516117da565b611b6581611b5f8454611a4d565b84611ae9565b602080601f831160018114611b9a5760008415611b825750858301515b600019600386901b1c1916600185901b178555611b2f565b600085815260208120601f198616915b82811015611bc957888601518255948401946001909101908401611baa565b5085821015611be75787850151600019600388901b60f8161c191681555b5050505050600190811b01905550565b606081526000611c0a6060830186611666565b8281036020840152611c1c8186611666565b915050826040830152949350505050565b8181038181111561050457610504611a87565b634e487b7160e01b600052603260045260246000fd5b600060018201611c6857611c68611a87565b506001019056fea2646970667358221220d6aa538e2bdf711146b316412b81ceca458c0b1ff57eee273e5dc54cfead740264736f6c63430008140033",
  "linkReferences": {},
  "deployedLinkReferences": {}
}